{
  "contractName": "StorageContract",
  "abi": [
    {
      "anonymous": false,
      "inputs": [
        {
          "indexed": false,
          "internalType": "string",
          "name": "ipfsHash",
          "type": "string"
        },
        {
          "indexed": false,
          "internalType": "bytes",
          "name": "nonce",
          "type": "bytes"
        },
        {
          "indexed": false,
          "internalType": "bytes",
          "name": "tag",
          "type": "bytes"
        }
      ],
      "name": "FileStored",
      "type": "event"
    },
    {
      "inputs": [
        {
          "internalType": "string",
          "name": "ipfsHash",
          "type": "string"
        },
        {
          "internalType": "bytes",
          "name": "nonce",
          "type": "bytes"
        },
        {
          "internalType": "bytes",
          "name": "tag",
          "type": "bytes"
        }
      ],
      "name": "storeFile",
      "outputs": [],
      "stateMutability": "nonpayable",
      "type": "function"
    },
    {
      "inputs": [
        {
          "internalType": "string",
          "name": "ipfsHash",
          "type": "string"
        }
      ],
      "name": "getFileMetadata",
      "outputs": [
        {
          "internalType": "bytes",
          "name": "",
          "type": "bytes"
        },
        {
          "internalType": "bytes",
          "name": "",
          "type": "bytes"
        }
      ],
      "stateMutability": "view",
      "type": "function"
    },
    {
      "inputs": [
        {
          "internalType": "string",
          "name": "ipfsHash",
          "type": "string"
        }
      ],
      "name": "fileExists",
      "outputs": [
        {
          "internalType": "bool",
          "name": "",
          "type": "bool"
        }
      ],
      "stateMutability": "view",
      "type": "function"
    }
  ],
  "bytecode": "0x608060405234801561001057600080fd5b50610ac8806100206000396000f3fe608060405234801561001057600080fd5b50600436106100415760003560e01c80631f98500314610046578063344cb6c7146100775780639bccd6ad14610093575b600080fd5b610060600480360381019061005b9190610630565b6100c3565b60405161006e92919061082c565b60405180910390f35b610091600480360381019061008c9190610671565b61032b565b005b6100ad60048036038101906100a89190610630565b6103fe565b6040516100ba9190610811565b60405180910390f35b606080600080846040516100d791906107fa565b908152602001604051809103902060000180546100f3906109f1565b905011610135576040517f08c379a000000000000000000000000000000000000000000000000000000000815260040161012c906108af565b60405180910390fd5b6000808460405161014691906107fa565b908152602001604051809103902060405180606001604052908160008201805461016f906109f1565b80601f016020809104026020016040519081016040528092919081815260200182805461019b906109f1565b80156101e85780601f106101bd576101008083540402835291602001916101e8565b820191906000526020600020905b8154815290600101906020018083116101cb57829003601f168201915b50505050508152602001600182018054610201906109f1565b80601f016020809104026020016040519081016040528092919081815260200182805461022d906109f1565b801561027a5780601f1061024f5761010080835404028352916020019161027a565b820191906000526020600020905b81548152906001019060200180831161025d57829003601f168201915b50505050508152602001600282018054610293906109f1565b80601f01602080910402602001604051908101604052809291908181526020018280546102bf906109f1565b801561030c5780601f106102e15761010080835404028352916020019161030c565b820191906000526020600020905b8154815290600101906020018083116102ef57829003601f168201915b5050505050815250509050806020015181604001519250925050915091565b60405180606001604052808481526020018381526020018281525060008460405161035691906107fa565b90815260200160405180910390206000820151816000019080519060200190610380929190610437565b50602082015181600101908051906020019061039d9291906104bd565b5060408201518160020190805190602001906103ba9291906104bd565b509050507f885bad4970a57a1adb3ef2569dd48f5ac17c717c8a37614ae40c20a3196177aa8383836040516103f193929190610863565b60405180910390a1505050565b60008060008360405161041191906107fa565b9081526020016040518091039020600001805461042d906109f1565b9050119050919050565b828054610443906109f1565b90600052602060002090601f01602090048101928261046557600085556104ac565b82601f1061047e57805160ff19168380011785556104ac565b828001600101855582156104ac579182015b828111156104ab578251825591602001919060010190610490565b5b5090506104b99190610543565b5090565b8280546104c9906109f1565b90600052602060002090601f0160209004810192826104eb5760008555610532565b82601f1061050457805160ff1916838001178555610532565b82800160010185558215610532579182015b82811115610531578251825591602001919060010190610516565b5b50905061053f9190610543565b5090565b5b8082111561055c576000816000905550600101610544565b5090565b600061057361056e84610900565b6108cf565b90508281526020810184848401111561058b57600080fd5b6105968482856109af565b509392505050565b60006105b16105ac84610930565b6108cf565b9050828152602081018484840111156105c957600080fd5b6105d48482856109af565b509392505050565b600082601f8301126105ed57600080fd5b81356105fd848260208601610560565b91505092915050565b600082601f83011261061757600080fd5b813561062784826020860161059e565b91505092915050565b60006020828403121561064257600080fd5b600082013567ffffffffffffffff81111561065c57600080fd5b61066884828501610606565b91505092915050565b60008060006060848603121561068657600080fd5b600084013567ffffffffffffffff8111156106a057600080fd5b6106ac86828701610606565b935050602084013567ffffffffffffffff8111156106c957600080fd5b6106d5868287016105dc565b925050604084013567ffffffffffffffff8111156106f257600080fd5b6106fe868287016105dc565b9150509250925092565b610711816109a3565b82525050565b600061072282610960565b61072c8185610976565b935061073c8185602086016109be565b61074581610a81565b840191505092915050565b600061075b8261096b565b6107658185610987565b93506107758185602086016109be565b61077e81610a81565b840191505092915050565b60006107948261096b565b61079e8185610998565b93506107ae8185602086016109be565b80840191505092915050565b60006107c7600e83610987565b91507f46696c65206e6f7420666f756e640000000000000000000000000000000000006000830152602082019050919050565b60006108068284610789565b915081905092915050565b60006020820190506108266000830184610708565b92915050565b600060408201905081810360008301526108468185610717565b9050818103602083015261085a8184610717565b90509392505050565b6000606082019050818103600083015261087d8186610750565b905081810360208301526108918185610717565b905081810360408301526108a58184610717565b9050949350505050565b600060208201905081810360008301526108c8816107ba565b9050919050565b6000604051905081810181811067ffffffffffffffff821117156108f6576108f5610a52565b5b8060405250919050565b600067ffffffffffffffff82111561091b5761091a610a52565b5b601f19601f8301169050602081019050919050565b600067ffffffffffffffff82111561094b5761094a610a52565b5b601f19601f8301169050602081019050919050565b600081519050919050565b600081519050919050565b600082825260208201905092915050565b600082825260208201905092915050565b600081905092915050565b60008115159050919050565b82818337600083830152505050565b60005b838110156109dc5780820151818401526020810190506109c1565b838111156109eb576000848401525b50505050565b60006002820490506001821680610a0957607f821691505b60208210811415610a1d57610a1c610a23565b5b50919050565b7f4e487b7100000000000000000000000000000000000000000000000000000000600052602260045260246000fd5b7f4e487b7100000000000000000000000000000000000000000000000000000000600052604160045260246000fd5b6000601f19601f830116905091905056fea2646970667358221220c2a002bcedb335f666e46f295e346ecd55db7ed0235337c282fb60d7141849b664736f6c63430008000033",
  "immutableReferences": {},
  "source": "// SPDX-License-Identifier: MIT\r\npragma solidity ^0.8.0;\r\n\r\ncontract StorageContract {\r\n    struct File {\r\n        string ipfsHash;\r\n        bytes nonce;\r\n        bytes tag;\r\n    }\r\n\r\n    mapping(string => File) private files;\r\n\r\n    event FileStored(string ipfsHash, bytes nonce, bytes tag);\r\n\r\n    // Store file metadata on blockchain\r\n    function storeFile(string memory ipfsHash, bytes memory nonce, bytes memory tag) public {\r\n        files[ipfsHash] = File(ipfsHash, nonce, tag);\r\n        emit FileStored(ipfsHash, nonce, tag);\r\n    }\r\n\r\n    // Retrieve file metadata from blockchain\r\n    function getFileMetadata(string memory ipfsHash) public view returns (bytes memory, bytes memory) {\r\n        require(bytes(files[ipfsHash].ipfsHash).length > 0, \"File not found\");\r\n        File memory file = files[ipfsHash];\r\n        return (file.nonce, file.tag);\r\n    }\r\n\r\n    // Check if a file exists\r\n    function fileExists(string memory ipfsHash) public view returns (bool) {\r\n        return bytes(files[ipfsHash].ipfsHash).length > 0;\r\n    }\r\n}\r\n",
  "sourcePath": "C:\\Users\\molim\\PycharmProjects\\DecentraVault\\contracts\\StorageContract.sol",
  "compiler": {
    "name": "solc",
    "version": "0.8.0+commit.c7dfd78e.Emscripten.clang"
  },
  "schemaVersion": "3.4.16",
  "updatedAt": "2024-09-28T12:09:58.445Z",
  "devdoc": {
    "kind": "dev",
    "methods": {},
    "version": 1
  },
  "userdoc": {
    "kind": "user",
    "methods": {},
    "version": 1
  }
}